:020000040800F2
:10000000100400209D010008830C0008A10A0008CC
:10001000810C0008A9020008690D0008000000001A
:10002000000000000000000000000000870C000835
:10003000AB02000800000000850C0008890C0008D5
:10004000B7010008B7010008B7010008B7010008B0
:10005000B7010008B7010008B7010008B7010008A0
:10006000B7010008B7010008B7010008B701000890
:10007000B7010008B7010008B7010008B701000880
:10008000B7010008B7010008B7010008B701000870
:10009000B7010008B7010008B7010008B701000860
:1000A000B7010008B7010008B7010008B701000850
:1000B000B7010008B7010008B7010008B701000840
:1000C000B7010008B7010008B7010008B701000830
:1000D000B7010008B7010008B7010008B701000820
:1000E000B7010008B7010008B7010008B701000810
:1000F000B7010008B7010008B7010008B701000800
:10010000B7010008B7010008B7010008B7010008EF
:10011000B7010008B7010008B7010008B7010008DF
:10012000B7010008B7010008B7010008B7010008CF
:10013000B7010008B7010008B7010008B7010008BF
:10014000B7010008B7010008B7010008B7010008AF
:10015000B7010008B7010008B7010008B70100089F
:10016000B7010008B7010008B7010008B70100088F
:10017000B7010008B7010008B7010008000000003F
:10018000B7010008B7010008DFF80CD000F07AF8DA
:1001900000480047A90D00081004002006488047C9
:1001A00006480047FEE7FEE7FEE7FEE7FEE7FEE75C
:1001B000FEE7FEE7FEE7FEE7150D000889010008EF
:1001C0002DE9F05F0546002092469B46884606468C
:1001D000814640241BE0284641464746224600F01F
:1001E00041F853465A46C01A914110D31146184659
:1001F000224600F028F82D1A67EB01084F462246E8
:100200000120002100F01FF817EB00094E41201ECD
:10021000A4F10104DFDC484631462A464346BDE8E6
:10022000F09FD2B201E000F8012B491EFBD27047CB
:100230000022F6E710B513460A4604461946FFF7B2
:10024000F0FF204610BD202A04DB203A00FA02F11C
:10025000002070479140C2F1200320FA03F31943B4
:1002600090407047202A04DB203A21FA02F0002156
:10027000704721FA02F3D040C2F1200291400843B6
:1002800019467047064C074D06E0E06840F0010350
:1002900094E8070098471034AC42F6D3FFF778FF94
:1002A000240E0008440E0008FEE7704770B50446AF
:1002B00000F0F8F80546601C02D0044800780444B9
:1002C00000F0F0F8401BA042FAD370BD00000020FF
:1002D0002DE9F84FDFF87CB100224FF001084FF014
:1002E000030A4FF00F090BF1040E00BF0B6808FA68
:1002F00002F42340A3426ED14D68022D01D0122D8D
:100300000ED1D50800EB850CDCF820505607F70E0F
:1003100009FA07F6B5430E69BE402E43CCF82060BB
:10032000066855000F790AFA05FC07F0030726EA6C
:100330000C06AF40374307604E68012E05D0022EF1
:1003400003D0112E01D0122E0ED18668CF6826EA76
:100350000C06AF40374387604668A6430C79C4F368
:100360000014944034434460C6688C6826EA0C0646
:10037000AC403443C4604C68E40065D5364C256815
:1003800045F480452560246822F0030504F4804488
:100390000094324C2E19D6F8084895072F0F09FA09
:1003A00007F5AC432E4DA84201D1002524E02D4D88
:1003B000A84201D101251FE02B4DA84201D1022501
:1003C0001AE02A4DA84201D1032515E0284DA84284
:1003D00002D1042510E037E0264DA84201D10525C1
:1003E0000AE0254DA84201D1062505E0234DA8428B
:1003F00001D1072500E00825BD402543C6F808586F
:10040000DBF800405D464E689C43F60300D51C4374
:100410002C60DEF8004075464E689C43B60300D55C
:100420001C432C600B4D08352C684E689C43F6022B
:1004300000D51C432C60074D0C352C684E689C433E
:10044000B60200D51C432C60521C102AFFF44EAF9C
:10045000BDE8F88F003C01404438024000300140C4
:10046000000002400004024000080240000C02406C
:10047000001002400014024000180240001C02401C
:100480000069084000D001207047426931EA020249
:1004900000D10904816170470AB181617047090484
:1004A000FBE7000001488068704700000000002062
:1004B0000248816802781144816070470000002082
:1004C0000B4810B5016841F400710160016841F406
:1004D00080610160016841F480710160032000F0D7
:1004E00063F8002000F006F800F024F8002010BDAA
:1004F000003C024070B50D4D04464FF47A712878E7
:10050000B1FBF0F00A490968B1FBF0F000F0B4FA71
:1005100048B9102C07D200222146501E00F024F8C2
:1005200000206C6070BD012070BD00000000002044
:100530000C0000200B4882B0016841F4804101604A
:10054000006800F4804000900648001F016841F0F8
:1005500080510160006800F080500090072002B0D8
:1005600000F022B844380240F0B40E4B1B680C4631
:10057000C3F30223C3F10705042D00D90425191D77
:10058000072901D2002300E0DB1E012606FA05F14F
:10059000491E214099409E40761E16403143F0BCD2
:1005A00000F0E3BB0CED00E0064900F0070208682C
:1005B0004FF6FF03184040EA0220034A1043086048
:1005C000704700000CED00E00000FA052DE9F0474F
:1005D0000E46050065D0DFF81481D8F80000F7B2A8
:1005E00000F00F00B04207D288F80070D8F8000081
:1005F00000F00F00B04254D128683D4C810712D55D
:10060000400703D5206840F4E050206028780007B8
:1006100003D5206840F4604020602068A96820F07D
:10062000F000084320602878C0072DD03049686862
:100630000839012812D0022813D0032811D00968E4
:10064000890700292DDA216821F003010143216087
:10065000FFF728FF814641F2883A0EE009688903D6
:10066000EFE709688901ECE7FFF71CFFA0EB090140
:10067000514502D90320BDE8F0872068696800F081
:100680000C00B0EB810FEFD1D8F80010404601F01C
:100690000F01B14207D90770006800F00F00B042A7
:1006A00001D00120E7E72878400705D52068E968F0
:1006B00020F4E050084320602878000706D5206821
:1006C000296920F4604040EAC100206000F016F87B
:1006D0002168084AC1F30311515CC840064908600B
:1006E0000020FFF707FF0020C5E70000003C0240A4
:1006F00008380240140E00080C000020154810B500
:10070000006810F00C02144813D04110042A0FD0D6
:10071000082A0ED10F4C241F2268236802F03F02E2
:100720005B0207D52068C0F38810A0FB010106E03A
:10073000084610BD2168C1F38811A1FB0001002308
:10074000FFF73EFD2168C1F30141491C4900B0FBA0
:10075000F1F010BD083802400024F4002DE9F84FF4
:10076000050076D02878DFF8F8B2BE4CC00749D033
:10077000DBF800105846C1F38101012908D0006858
:10078000C0F3810002280AD1201D0068400206D56E
:100790002068800336D568680028E2D032E06868B7
:1007A000B0F5803F10D0B0F5A02F206810D020F415
:1007B00080302060206820F4802020606868A0B12C
:1007C000FFF770FE06460CE0206840F48030F4E746
:1007D00040F480202060F7E7FFF764FE801B642868
:1007E00073D820688003F7D50CE0FFF75BFE064660
:1007F00005E000BFFFF756FE801B6428F0D8206894
:100800008003F7D42878DFF8608280074FF0000972
:100810003ED5DBF80010584611F00C0F09D00068E7
:10082000C0F3810002280BD18D48001F00684002F0
:1008300006D42068800715D5E868012809D111E0A1
:10084000E868B8B10120C8F80000FFF72BFE0646A3
:1008500005E002E1FFF726FE801B0228C0D82068D1
:100860008007F7D52068296920F0F80040EAC10028
:1008700020600DE0C8F80090FFF714FE064604E083
:10088000FFF710FE801B02281FD820688007F7D4CE
:100890002878000722D5724E744869696C3671B1A8
:1008A00001210160FFF7FEFD074604E0FFF7FAFDB6
:1008B000C01B022809D830688007F7D50EE0C0F8C1
:1008C0000090FFF7EFFD074605E083E0FFF7EAFD44
:1008D000C01B02287ED830688007F7D428784007EC
:1008E00068D5DFF87CA100270AF1380ADAF80000A1
:1008F000C0000BD4DAF8001041F08051CAF80010A3
:10090000DAF80000012700F080500090584E30685F
:10091000C00510D4306840F480703060FFF7C2FD2D
:10092000009005E0FFF7BEFD0099401A022851D85B
:100930003068C005F6D54A4EA868683601280FD041
:100940000528306810D020F001003060306820F0B9
:1009500004003060A868B8B1FFF7A4FD00900FE074
:10096000306840F00100F4E740F004003060F7E741
:10097000FFF798FD0099411A41F28830814264D80E
:1009800030688007F4D50EE0FFF78CFD009007E09B
:10099000FFF788FD0099411A41F28830814254D80E
:1009A00030688007F4D42FB1DAF8001021F08051BC
:1009B000CAF80010A869C0B3DBF80010C1F38101C8
:1009C00002294AD00228484607D0C8F86000FFF73D
:1009D00069FD00E039E005463AE04746C8F86000A6
:1009E000FFF760FD064604E0FFF75CFD801B022870
:1009F0002BD820688001F7D4D5E907010843A96AFC
:100A00001C4A490802EB01416A6A41EA8211084323
:100A100095F82C1040EA01611148001F0160012087
:100A20003866FFF73FFD054605E014E0FFF73AFDA5
:100A3000401B022809D820688001F7D50BE000BFD1
:100A4000FFF730FD401B022802D90320BDE8F88FD4
:100A500020688001F4D40020F8E70120F6E70000C8
:100A6000083802400038024000004742800E4742EA
:100A7000007000400000FFFF10B5401EB0F1807F05
:100A800001D3012010BD4FF0E02460610F216017F9
:100A900000F06BF90020A06107202061002010BD4C
:100AA000FEE700002DE9F04F87B014216846FFF7FC
:100AB000BFFB6C480024016841F01001016001682F
:100AC00001F010010591016841F004010160016825
:100AD00001F004010591016841F0800101600168A5
:100AE00001F080010591016841F001010160016898
:100AF00001F001010591016841F002010160016806
:100B000001F002010591016841F0080101600068EF
:100B1000002200F00800059008215348FFF7BCFCB4
:100B2000012211465148FFF7B7FC4FF2100B00228B
:100B300059464F48FFF7B0FC082501260095CDE93E
:100B40000164694648480394FFF7C2FB0096CDE96B
:100B50000164694645480394FFF7BAFB00950225F6
:100B6000CDE901540527CDE9034769463F48FFF722
:100B7000AFFBDFF800810096CDE9018469463E486D
:100B8000FFF7A6FB10200090CDE901544FF00609B5
:100B9000CDE9034969463848FFF79AFBE020009009
:100BA000CDE90154CDE9034769463348FFF790FB8F
:100BB0004FF0040ACDE900A4694630480294FFF7DB
:100BC00087FB68020090CDE90154CDE903476946EF
:100BD0002A48FFF77DFBCDF800B0CDE901646946F6
:100BE00023480394FFF774FB4FF4A4500090CDE921
:100BF0000154CDE9034969461C48FFF769FB280207
:100C0000CDE9000469461C480294FFF761FB4FF4EC
:100C1000E0500090CDE901540A20CDE90340694637
:100C20001548FFF755FB2020CDE900046946104820
:100C30000294FFF74DFB4FF4107000901220CDE9A5
:100C40000106CDE9034A69460C48FFF741FB0095D0
:100C5000CDE9018469460448FFF73AFB07B0BDE8D7
:100C6000F08F0000303802400010024000080240BF
:100C7000000C02400000121000000240000402407C
:100C8000FEE7704770477047FFF712BC30B593B06E
:100C900030216846FFF7CCFA14210CA8FFF7C8FAF8
:100CA0001A480025016841F080510160006800F099
:100CB000805011901648016841F48041016000683D
:100CC000022400F480401190012003901020049031
:100CD000009406940820CDE90750322009900420A2
:100CE0000A9007200B906846FFF738FD0CA90F20EB
:100CF00081E831004FF4C0500F904FF4A050109095
:100D000000210CA8FFF762FC13B030BD4038024050
:100D1000007000401048016841F4700101600F4804
:100D2000016841F0010101600C4A002108321160A4
:100D300002680B4B1A400260031D0A4A1A600268DF
:100D400022F48022026005480C30016002495806F6
:100D5000803908607047000088ED00E000380240EC
:100D6000FFFFF6FE10300024FEE70907090E0028F9
:100D700004DB00F1E02080F80014704700F00F0061
:100D800000F1E02080F8141D704702E008C8121F2F
:100D900008C1002AFAD170477047002001E001C164
:100DA000121F002AFBD17047FFF78AFBFFF76EFF87
:100DB000FFF778FE154D164CAE1477004FF48048BF
:100DC0004FF4004901212846FFF75AFB0128F9D1C9
:100DD00031462046FFF759FB4620FFF767FA3946B0
:100DE0002046FFF752FB4620FFF760FA41462046B7
:100DF000FFF74BFB4620FFF759FA49462046FFF71D
:100E000044FB4620FFF752FADCE7000000000240F6
:100E1000000C02400000000000000000010203047A
:100E200006070809440E000800000020100000001A
:100E30008A0D0008540E0008100000200004000075
:100E40009A0D0008010000001000000000000000E2
:040E50000024F40086
:040000050800018965
:00000001FF
